{"abi":[{"type":"constructor","inputs":[{"name":"SFPM_","type":"address","internalType":"contract ISemiFungiblePositionManager"}],"stateMutability":"payable"},{"type":"function","name":"checkCollateral","inputs":[{"name":"pool","type":"address","internalType":"contract PanopticPool"},{"name":"account","type":"address","internalType":"address"},{"name":"positionIdList","type":"uint256[]","internalType":"TokenId[]"}],"outputs":[{"name":"collateralBalances0","type":"uint256[4]","internalType":"uint256[4]"},{"name":"requiredCollaterals0","type":"uint256[4]","internalType":"uint256[4]"},{"name":"collateralBalances1","type":"uint256[4]","internalType":"uint256[4]"},{"name":"requiredCollaterals1","type":"uint256[4]","internalType":"uint256[4]"}],"stateMutability":"view"},{"type":"function","name":"checkCollateral","inputs":[{"name":"pool","type":"address","internalType":"contract PanopticPool"},{"name":"account","type":"address","internalType":"address"},{"name":"positionIdList","type":"uint256[]","internalType":"TokenId[]"},{"name":"atTick","type":"int24","internalType":"int24"}],"outputs":[{"name":"","type":"uint256","internalType":"uint256"},{"name":"","type":"uint256","internalType":"uint256"}],"stateMutability":"view"},{"type":"function","name":"checkCollateralListOutput","inputs":[{"name":"pool","type":"address","internalType":"contract PanopticPool"},{"name":"account","type":"address","internalType":"address"},{"name":"positionIdList","type":"uint256[]","internalType":"TokenId[]"}],"outputs":[{"name":"","type":"uint256[2][]","internalType":"uint256[2][]"},{"name":"","type":"int256[]","internalType":"int256[]"},{"name":"","type":"int24[]","internalType":"int24[]"}],"stateMutability":"view"},{"type":"function","name":"computeMedianObservedPrice","inputs":[{"name":"univ3pool","type":"address","internalType":"contract IUniswapV3Pool"},{"name":"cardinality","type":"uint256","internalType":"uint256"},{"name":"period","type":"uint256","internalType":"uint256"}],"outputs":[{"name":"medianTick","type":"int24","internalType":"int24"}],"stateMutability":"view"},{"type":"function","name":"getChunkData","inputs":[{"name":"pool","type":"address","internalType":"contract PanopticPool"},{"name":"account","type":"address","internalType":"address"},{"name":"positionIdList","type":"uint256[]","internalType":"TokenId[]"}],"outputs":[{"name":"","type":"uint256[2][4][]","internalType":"uint256[2][4][]"}],"stateMutability":"view"},{"type":"function","name":"getLiquidationPrices","inputs":[{"name":"pool","type":"address","internalType":"contract PanopticPool"},{"name":"account","type":"address","internalType":"address"},{"name":"positionIdList","type":"uint256[]","internalType":"TokenId[]"}],"outputs":[{"name":"liquidationPriceDown","type":"int24","internalType":"int24"},{"name":"liquidationPriceUp","type":"int24","internalType":"int24"}],"stateMutability":"view"},{"type":"function","name":"getNetLiquidationValue","inputs":[{"name":"pool","type":"address","internalType":"contract PanopticPool"},{"name":"account","type":"address","internalType":"address"},{"name":"includePendingPremium","type":"bool","internalType":"bool"},{"name":"positionIdList","type":"uint256[]","internalType":"TokenId[]"},{"name":"atTick","type":"int24","internalType":"int24"}],"outputs":[{"name":"value0","type":"int256","internalType":"int256"},{"name":"value1","type":"int256","internalType":"int256"}],"stateMutability":"view"},{"type":"function","name":"getPortfolioValue","inputs":[{"name":"pool","type":"address","internalType":"contract PanopticPool"},{"name":"account","type":"address","internalType":"address"},{"name":"atTick","type":"int24","internalType":"int24"},{"name":"positionIdList","type":"uint256[]","internalType":"TokenId[]"}],"outputs":[{"name":"value0","type":"int256","internalType":"int256"},{"name":"value1","type":"int256","internalType":"int256"}],"stateMutability":"view"},{"type":"function","name":"getRequiredBase","inputs":[{"name":"pool","type":"address","internalType":"contract PanopticPool"},{"name":"tokenId","type":"uint256","internalType":"TokenId"},{"name":"atTick","type":"int24","internalType":"int24"}],"outputs":[{"name":"","type":"uint256","internalType":"uint256"}],"stateMutability":"view"},{"type":"function","name":"isAccountSolvent","inputs":[{"name":"pool","type":"address","internalType":"contract PanopticPool"},{"name":"account","type":"address","internalType":"address"},{"name":"positionIdList","type":"uint256[]","internalType":"TokenId[]"},{"name":"atTick","type":"int24","internalType":"int24"}],"outputs":[{"name":"","type":"bool","internalType":"bool"}],"stateMutability":"view"},{"type":"function","name":"optimizeRiskPartners","inputs":[{"name":"pool","type":"address","internalType":"contract PanopticPool"},{"name":"atTick","type":"int24","internalType":"int24"},{"name":"tokenId","type":"uint256","internalType":"TokenId"}],"outputs":[{"name":"","type":"uint256","internalType":"TokenId"}],"stateMutability":"view"},{"type":"function","name":"twapFilter","inputs":[{"name":"univ3pool","type":"address","internalType":"contract IUniswapV3Pool"},{"name":"twapWindow","type":"uint32","internalType":"uint32"}],"outputs":[{"name":"","type":"int24","internalType":"int24"}],"stateMutability":"view"},{"type":"function","name":"validateTokenId","inputs":[{"name":"self","type":"uint256","internalType":"TokenId"}],"outputs":[],"stateMutability":"pure"},{"type":"error","name":"CastingError","inputs":[]},{"type":"error","name":"InvalidTick","inputs":[]},{"type":"error","name":"InvalidTokenIdParameter","inputs":[{"name":"parameterType","type":"uint256","internalType":"uint256"}]},{"type":"error","name":"LiquidityTooHigh","inputs":[]},{"type":"error","name":"UnderOverFlow","inputs":[]}],"bytecode":{"object":"0x60a0604052629896805f556040516153f53803806153f58339810160408190526026916036565b6001600160a01b03166080526061565b5f602082840312156045575f80fd5b81516001600160a01b0381168114605a575f80fd5b9392505050565b60805161537c6100795f395f611a52015261537c5ff3fe608060405234801561000f575f80fd5b50600436106100da575f3560e01c8063a2ae7fdc11610088578063b8b551d611610063578063b8b551d614610213578063d27e5fa714610233578063df55c47214610246578063e830adb914610259575f80fd5b8063a2ae7fdc146101b7578063b78ba442146101dd578063b7e5673c14610200575f80fd5b80638fec6d57116100b85780638fec6d571461014c578063998d35251461016e5780639bd25cad14610196575f80fd5b806334600901146100de5780637d908a1b146100f35780637fe2f9651461011f575b5f80fd5b6100f16100ec366004614333565b61026c565b005b6101066101013660046143af565b61029f565b6040516101169493929190614432565b60405180910390f35b61013261012d3660046143af565b6103c6565b60408051600293840b81529190920b602082015201610116565b61015f61015a3660046143af565b6104fd565b604051610116939291906144da565b61018161017c366004614581565b610a10565b60408051928352602083019190915201610116565b6101a96101a43660046145f9565b610d72565b604051908152602001610116565b6101ca6101c5366004614637565b6113e6565b60405160029190910b8152602001610116565b6101f06101eb366004614581565b61147f565b6040519015158152602001610116565b61018161020e366004614676565b611711565b61022661022136600461479e565b61198e565b604051610116919061485a565b6101a96102413660046148ca565b611c58565b610181610254366004614909565b611f93565b6101ca610267366004614991565b61211e565b610275816121d5565b5f5b6102808261244d565b81101561029b576102918282612487565b5050600101610277565b5050565b6102a76142ca565b6102af6142ca565b6102b76142ca565b6102bf6142ca565b6102c76142ca565b8873ffffffffffffffffffffffffffffffffffffffff1663b7e0ca966040518163ffffffff1660e01b815260040160a060405180830381865afa158015610310573d5f803e3d5ffd5b505050506040513d601f19601f8201168201806040525081019061033491906149c8565b50600290810b606086015290810b604085015290810b60208401520b81525f5b60048110156103b9576103808a8a8a8a86866004811061037657610376614a2f565b6020020151610a10565b87836004811061039257610392614a2f565b602002018784600481106103a8576103a8614a2f565b602002019190915252600101610354565b5050945094509450949050565b5f80627fffff90507fffffffffffffffffffffffffffffffffffffffffffffffffffffffffff80000091505f8673ffffffffffffffffffffffffffffffffffffffff1663b7e0ca966040518163ffffffff1660e01b815260040160a060405180830381865afa15801561043b573d5f803e3d5ffd5b505050506040513d601f19601f8201168201806040525081019061045f91906149c8565b50929350610496925089915088905087877ffffffffffffffffffffffffffffffffffffffffffffffffffffffffffff2761861147f565b6104cb576104c887877ffffffffffffffffffffffffffffffffffffffffffffffffffffffffffff276188489896124be565b92505b6104db87878787620d89e861147f565b6104f3576104f0878783620d89e88989612522565b91505b5094509492505050565b6040805161012d8082526125c08201909252606091829182915f9190602082016125a08036833750506040805160028082526060820183529394505f93909250906020830190803683370190505090505f805f8b73ffffffffffffffffffffffffffffffffffffffff1663b7e0ca966040518163ffffffff1660e01b815260040160a060405180830381865afa158015610599573d5f803e3d5ffd5b505050506040513d601f19601f820116820180604052508101906105bd91906149c8565b5050505090506105e48a8a5f8181106105d8576105d8614a2f565b90506020020135612586565b9150816105f18183614ab6565b6105fb9190614b29565b9250505f8061060c8d8d8d8d6103c6565b9150915081855f8151811061062357610623614a2f565b602002602001019060020b908160020b81525050808560018151811061064b5761064b614a2f565b602002602001019060020b908160020b815250507ffffffffffffffffffffffffffffffffffffffffffffffffffffffffffff2761860020b865f8151811061069557610695614a2f565b602002602001018181525050620d89e860020b8661012c815181106106bc576106bc614a2f565b60209081029190910101525f6106d46161a886614b4f565b90505f6106e36161a887614b90565b90508160020b8460020b12801561071e5750600284900b7fffffffffffffffffffffffffffffffffffffffffffffffffffffffffff80000014155b156107325761072f61271085614b4f565b91505b8060020b8360020b13801561074e5750600283900b627fffff14155b156107625761075f83612710614b90565b90505b5f8260020b8260020b6107759190614bd1565b90505f61078461012a83614bf0565b905060015b61012c8110156107f9575f826107a0600184614c57565b6107aa9190614c6a565b8660020b6107b89190614cb5565b9050600289900b6107c98183614bf0565b6107d39190614c6a565b8c83815181106107e5576107e5614a2f565b602090810291909101015250600101610789565b505f975061012d965061080e95505050505050565b60405190808252806020026020018201604052801561084757816020015b6108346142e8565b81526020019060019003908161082c5790505b5090505f5b61012d811015610a01575f805f61087b87858151811061086e5761086e614a2f565b6020026020010151612598565b90505f8760968151811061089157610891614a2f565b6020026020010151121561091b576108c58e8e8e8e8b89815181106108b8576108b8614a2f565b6020026020010151610a10565b909350915060606108ec73ffffffffffffffffffffffffffffffffffffffff831685614cdc565b901c9250606061091273ffffffffffffffffffffffffffffffffffffffff831684614cdc565b901c9150610986565b6109348e8e8e8e8b89815181106108b8576108b8614a2f565b909350915061095d73ffffffffffffffffffffffffffffffffffffffff8216606085901b614cf3565b925061098373ffffffffffffffffffffffffffffffffffffffff8216606084901b614cf3565b91505b8285858151811061099957610999614a2f565b60200260200101515f600281106109b2576109b2614a2f565b6020020152845182908690869081106109cd576109cd614a2f565b60200260200101516001600281106109e7576109e7614a2f565b6020020152506109fa9150829050614d06565b905061084c565b50999198509650945050505050565b5f805f805f610a228a878b8b8b6128f8565b9250925092505f805f8c90505f8173ffffffffffffffffffffffffffffffffffffffff166392b888ae6040518163ffffffff1660e01b8152600401602060405180830381865afa158015610a78573d5f803e3d5ffd5b505050506040513d601f19601f82011682018060405250810190610a9c9190614d3d565b73ffffffffffffffffffffffffffffffffffffffff1663442838216040518163ffffffff1660e01b8152600401602060405180830381865afa158015610ae4573d5f803e3d5ffd5b505050506040513d601f19601f82011682018060405250810190610b089190614d58565b90505f8273ffffffffffffffffffffffffffffffffffffffff166392b888ae6040518163ffffffff1660e01b8152600401602060405180830381865afa158015610b54573d5f803e3d5ffd5b505050506040513d601f19601f82011682018060405250810190610b789190614d3d565b73ffffffffffffffffffffffffffffffffffffffff166324c20daa6040518163ffffffff1660e01b8152600401602060405180830381865afa158015610bc0573d5f803e3d5ffd5b505050506040513d601f19601f82011682018060405250810190610be49190614d58565b9050610bf983610bf388612b8c565b84612b9b565b9450610c0e83610c0888612ca7565b83612b9b565b93505050505f610c3d610c218760801c90565b6fffffffffffffffffffffffffffffffff165f54612710612cb6565b90505f610c4d610c218760801c90565b90506fffffffffffffffffffffffffffffffff8088169087165f610c8a858411610c77575f610c81565b610c818685614c57565b88612710612d11565b90505f610c9d858411610c77575f610c81565b90505f610ca98f612598565b90505f805f806c010000000000000000000000008573ffffffffffffffffffffffffffffffffffffffff161015610d1b57610ce48686612dda565b610cee908a614d6f565b93508a925086610cfe8987612dda565b610d089190614d6f565b9150610d148a86612e88565b9050610d58565b85610d268a87612f2f565b610d309190614d6f565b9350610d3c8b86612faa565b9250610d488786612f2f565b610d529089614d6f565b91508990505b505050505050505050505050505050509550959350505050565b5f80610d7d8361244d565b905080600103610d9057829150506113df565b7ffffffffff3fffffffffff3fffffffffff3fffffffffff3ffffffffffffffffff831660605f6002849003610e59575060408051600280825260608201835291829060208301908036833750919350610e0091506001905080855b91906003909116603091909102604a011b0190565b825f81518110610e1257610e12614a2f565b6020908102919091010152610e355f600169040000000000000000008601610deb565b82600181518110610e4857610e48614a2f565b6020026020010181815250506111ac565b83600303610f49575060408051600480825260a08201909252816020820160808036833750919350610e9591506002905080610deb6001808883565b825f81518110610ea757610ea7614a2f565b6020908102919091010152610ece600280610deb5f60016904000000000000000000890183565b82600181518110610ee157610ee1614a2f565b6020908102919091010152610f085f6002610deb6001806908000000000000000000890183565b82600281518110610f1b57610f1b614a2f565b6020908102919091010152610f3660016002610deb81838883565b82600381518110610e4857610e48614a2f565b5060408051600a808252610160820190925281602082016101408036833750919350610f8391506003905080610deb600280826001808b83565b825f81518110610f9557610f95614a2f565b6020908102919091010152610fc0600380610deb600280825f600169040000000000000000008c0183565b82600181518110610fd357610fd3614a2f565b6020908102919091010152610ffe600380610deb5f60028260018069080000000000000000008c0183565b8260028151811061101157611011614a2f565b602090810291909101015261103c5f6003610deb60028082600180690c0000000000000000008c0183565b8260038151811061104f5761104f614a2f565b602090810291909101015261106e600380610deb600160028281838b83565b8260048151811061108157611081614a2f565b60209081029190910101526110a060016003610deb6002808284868b83565b826005815181106110b3576110b3614a2f565b60209081029190910101526110d260026003610deb8183826001808b83565b826006815181106110e5576110e5614a2f565b602090810291909101015261111060026003610deb8183825f600169040000000000000000008c0183565b8260078151811061112357611123614a2f565b602090810291909101015261114e60016003610deb5f600282848669080000000000000000008c0183565b8260088151811061116157611161614a2f565b602090810291909101015261118c5f6003610deb82600282816001690c0000000000000000008c0183565b8260098151811061119f5761119f614a2f565b6020026020010181815250505b5f3073ffffffffffffffffffffffffffffffffffffffff1663d27e5fa78a855f815181106111dc576111dc614a2f565b60209081029190910101516040517fffffffff0000000000000000000000000000000000000000000000000000000060e085901b16815273ffffffffffffffffffffffffffffffffffffffff9092166004830152602482015260028b900b6044820152606401602060405180830381865afa15801561125d573d5f803e3d5ffd5b505050506040513d601f19601f820116820180604052508101906112819190614d58565b90505f835f8151811061129657611296614a2f565b602002602001015190505f600190505b838110156113d1573073ffffffffffffffffffffffffffffffffffffffff1663d27e5fa78c8784815181106112dd576112dd614a2f565b60209081029190910101516040517fffffffff0000000000000000000000000000000000000000000000000000000060e085901b16815273ffffffffffffffffffffffffffffffffffffffff9092166004830152602482015260028d900b6044820152606401602060405180830381865afa92505050801561139a575060408051601f3d9081017fffffffffffffffffffffffffffffffffffffffffffffffffffffffffffffffe016820190925261139791810190614d58565b60015b156113c957838110156113c7578582815181106113b9576113b9614a2f565b602002602001015192508093505b505b6001016112a6565b5095506113df945050505050565b9392505050565b5f805f8573ffffffffffffffffffffffffffffffffffffffff16633850c7bd6040518163ffffffff1660e01b815260040160e060405180830381865afa158015611432573d5f803e3d5ffd5b505050506040513d601f19601f820116820180604052508101906114569190614d93565b505050935093505050611474868361ffff168361ffff168888613025565b509695505050505050565b5f805f808873ffffffffffffffffffffffffffffffffffffffff16632dda106b895f8a8a6040518563ffffffff1660e01b81526004016114c29493929190614e50565b5f60405180830381865afa1580156114dc573d5f803e3d5ffd5b505050506040513d5f823e601f3d9081017fffffffffffffffffffffffffffffffffffffffffffffffffffffffffffffffe01682016040526115219190810190614e87565b9250925092505f8973ffffffffffffffffffffffffffffffffffffffff16637594cdc36040518163ffffffff1660e01b8152600401602060405180830381865afa158015611571573d5f803e3d5ffd5b505050506040513d601f19601f820116820180604052508101906115959190614d3d565b90505f8a73ffffffffffffffffffffffffffffffffffffffff16634d7b09006040518163ffffffff1660e01b8152600401602060405180830381865afa1580156115e1573d5f803e3d5ffd5b505050506040513d601f19601f820116820180604052508101906116059190614d3d565b90508a73ffffffffffffffffffffffffffffffffffffffff166392b888ae6040518163ffffffff1660e01b8152600401602060405180830381865afa158015611650573d5f803e3d5ffd5b505050506040513d601f19601f820116820180604052508101906116749190614d3d565b73ffffffffffffffffffffffffffffffffffffffff16634dec783b848b8b8b8f8b8b8a8a629896806040518b63ffffffff1660e01b81526004016116c19a99989796959493929190614f4f565b602060405180830381865afa1580156116dc573d5f803e3d5ffd5b505050506040513d601f19601f820116820180604052508101906117009190614fcc565b955050505050505b95945050505050565b5f805f805f8a73ffffffffffffffffffffffffffffffffffffffff16632dda106b8b8b8b8b6040518563ffffffff1660e01b81526004016117559493929190614e50565b5f60405180830381865afa15801561176f573d5f803e3d5ffd5b505050506040513d5f823e601f3d9081017fffffffffffffffffffffffffffffffffffffffffffffffffffffffffffffffe01682016040526117b49190810190614e87565b9250925092505f5b87811015611906575f8989838181106117d7576117d7614a2f565b9050602002013590505f6118018484815181106117f6576117f6614a2f565b602002602001015190565b90505f61180d8361244d565b90505f5b81811015611890575f6118258583866132f1565b90505f806118338e8461335c565b909250905061184287856133db565b5f0361186757611851826133f1565b8d019c5061185e816133f1565b8c019b50611882565b611870826133f1565b8d039c5061187d816133f1565b8c039b505b836001019350505050611811565b505f8061189e85855f613450565b915091506118a98190565b600f0b82600f0b6118ba9190614bd1565b6118c4908c614cb5565b9a506118d08160801d90565b600f0b6118dd8360801d90565b600f0b6118ea9190614bd1565b6118f4908b614cb5565b995085600101955050505050506117bc565b506119266fffffffffffffffffffffffffffffffff808416908516614bd1565b6119309086614cb5565b945061193c8260801c90565b6fffffffffffffffffffffffffffffffff166119588460801c90565b6fffffffffffffffffffffffffffffffff166119749190614bd1565b61197e9085614cb5565b9350505050965096945050505050565b60605f825167ffffffffffffffff8111156119ab576119ab6146ff565b6040519080825280602002602001820160405280156119e457816020015b6119d1614306565b8152602001906001900390816119c95790505b5090505f5b8351811015611c4f575f5b611a16858381518110611a0957611a09614a2f565b602002602001015161244d565b811015611c46575f80611a4b83888681518110611a3557611a35614a2f565b602002602001015161248790919063ffffffff16565b915091505f7f000000000000000000000000000000000000000000000000000000000000000073ffffffffffffffffffffffffffffffffffffffff1663776452618b73ffffffffffffffffffffffffffffffffffffffff1663182148ef6040518163ffffffff1660e01b81526004015f60405180830381865afa158015611ad4573d5f803e3d5ffd5b505050506040513d5f823e601f3d9081017fffffffffffffffffffffffffffffffffffffffffffffffffffffffffffffffe0168201604052611b199190810190614fe7565b8b611b46888d8b81518110611b3057611b30614a2f565b60200260200101516134a990919063ffffffff16565b87876040518663ffffffff1660e01b8152600401611b68959493929190615099565b602060405180830381865afa158015611b83573d5f803e3d5ffd5b505050506040513d601f19601f82011682018060405250810190611ba79190614d58565b9050806fffffffffffffffffffffffffffffffff16868681518110611bce57611bce614a2f565b60200260200101518560048110611be757611be7614a2f565b602002015152608081901c6fffffffffffffffffffffffffffffffff16868681518110611c1657611c16614a2f565b60200260200101518560048110611c2f57611c2f614a2f565b6020020151600160200201525050506001016119f4565b506001016119e9565b50949350505050565b6040517f34600901000000000000000000000000000000000000000000000000000000008152600481018390525f9030906334600901906024015f6040518083038186803b158015611ca8575f80fd5b505afa925050508015611cb9575060015b611cd457506fffffffffffffffffffffffffffffffff6113df565b6040805160018082528183019092525f916020808301908036833750506040805160018082528183019092529293505f9291506020808301908036833701905050905084815f81518110611d2a57611d2a614a2f565b6020908102919091010152611d4f67ffffffffffffffff63271027105f8080806134bb565b825f81518110611d6157611d61614a2f565b6020026020010181815250508573ffffffffffffffffffffffffffffffffffffffff166392b888ae6040518163ffffffff1660e01b8152600401602060405180830381865afa158015611db6573d5f803e3d5ffd5b505050506040513d601f19601f82011682018060405250810190611dda9190614d3d565b73ffffffffffffffffffffffffffffffffffffffff1663a7a5fd91838661dead855f808d73ffffffffffffffffffffffffffffffffffffffff16637594cdc36040518163ffffffff1660e01b8152600401602060405180830381865afa158015611e46573d5f803e3d5ffd5b505050506040513d601f19601f82011682018060405250810190611e6a9190614d3d565b8e73ffffffffffffffffffffffffffffffffffffffff16634d7b09006040518163ffffffff1660e01b8152600401602060405180830381865afa158015611eb3573d5f803e3d5ffd5b505050506040513d601f19601f82011682018060405250810190611ed79190614d3d565b6040518963ffffffff1660e01b8152600401611efa989796959493929190615124565b606060405180830381865afa925050508015611f51575060408051601f3d9081017fffffffffffffffffffffffffffffffffffffffffffffffffffffffffffffffe0168201909252611f4e918101906151f5565b60015b611f7057506fffffffffffffffffffffffffffffffff91506113df9050565b5f611f848484611f7f8b612598565b613576565b97506113df9650505050505050565b5f805f8773ffffffffffffffffffffffffffffffffffffffff16632dda106b885f88886040518563ffffffff1660e01b8152600401611fd59493929190614e50565b5f60405180830381865afa158015611fef573d5f803e3d5ffd5b505050506040513d5f823e601f3d9081017fffffffffffffffffffffffffffffffffffffffffffffffffffffffffffffffe01682016040526120349190810190614e87565b925050505f5b84811015612112575f86868381811061205557612055614a2f565b9050602002013590505f6120748484815181106117f6576117f6614a2f565b90505f6120808361244d565b90505f5b81811015612103575f6120988583866132f1565b90505f806120a68e8461335c565b90925090506120b587856133db565b5f036120da576120c4826133f1565b8b019a506120d1816133f1565b8a0199506120f5565b6120e3826133f1565b8b039a506120f0816133f1565b8a0399505b836001019350505050612084565b5083600101935050505061203a565b50509550959350505050565b6040517f5ac17dfa00000000000000000000000000000000000000000000000000000000815273ffffffffffffffffffffffffffffffffffffffff8316600482015263ffffffff821660248201525f9073__$6ab286e9bc6a73ff3c73ebd919d1072036$__90635ac17dfa90604401602060405180830381865af41580156121a8573d5f803e3d5ffd5b505050506040513d601f19601f820116820180604052508101906121cc9190615220565b90505b92915050565b6121df815f6136c0565b5f0361221f576040517f93db0263000000000000000000000000000000000000000000000000000000008152600160048201526024015b60405180910390fd5b77fffffffff200fffffffff200fffffffff200fffffffff200604082901c165f6122488361244d565b90505f5b806004146124475761225e84826136c0565b5f036122ad576040603082020184901c156122a8576040517f93db026300000000000000000000000000000000000000000000000000000000815260016004820152602401612216565b612447565b600181015b828114612319578060300284901c65ffffffffffff168260300285901c65ffffffffffff1603612311576040517f93db026300000000000000000000000000000000000000000000000000000000815260066004820152602401612216565b6001016122b2565b507ffffffffffffffffffffffffffffffffffffffffffffffffffffffffffff2761861234a8583603002604c011c90565b60020b148061236c5750620d89e86123678583603002604c011c90565b60020b145b156123a5576040517f93db0263000000000000000000000000000000000000000000000000000000008152600481810152602401612216565b5f6123b085836136d2565b9050600183038111156123f2576040517f93db026300000000000000000000000000000000000000000000000000000000815260036004820152602401612216565b81811461243e578161240486836136d2565b1461243e576040517f93db026300000000000000000000000000000000000000000000000000000000815260036004820152602401612216565b5060010161224c565b50505050565b5f72fe0000000000fe0000000000fe0000000000fe604083901c165b6001603083021b811061248157816001019150612469565b50919050565b5f806124b361249b8585603002604c011c90565b6124a586866136e4565b6124ae87612586565b6136f7565b909590945092505050565b5f5b60016124cc8686614b4f565b60020b1315612517575f60026124e28688614b90565b6124ec9190614ab6565b90505f6124fc898987878661147f565b9050801561250c57819550612510565b8196505b50506124c0565b509195945050505050565b5f5b60016125308686614b4f565b60020b131561257b575f60026125468688614b90565b6125509190614ab6565b90505f612560898987878661147f565b9050801561257057819650612574565b8195505b5050612524565b509295945050505050565b5f62010000603083901c5b0692915050565b5f805f8360020b126125ad578260020b6125b4565b8260020b5f035b9050620d89e88111156125f3576040517fce8ef7fc00000000000000000000000000000000000000000000000000000000815260040160405180910390fd5b5f816001165f0361261557700100000000000000000000000000000000612627565b6ffffcb933bd6fad37aa2d162d1a5940015b70ffffffffffffffffffffffffffffffffff169050600282161561265b576ffff97272373d413259a46990580e213a0260801c5b600482161561267a576ffff2e50f5f656932ef12357cf3c7fdcc0260801c5b6008821615612699576fffe5caca7e10e4e61c3624eaa0941cd00260801c5b60108216156126b8576fffcb9843d60f6159c9db58835c9266440260801c5b60208216156126d7576fff973b41fa98c081472e6896dfb254c00260801c5b60408216156126f6576fff2ea16466c96a3843ec78b326b528610260801c5b6080821615612715576ffe5dee046a99a2a811c461f1969c30530260801c5b610100821615612735576ffcbe86c7900a88aedcffc83b479aa3a40260801c5b610200821615612755576ff987a7253ac413176f2b074cf7815e540260801c5b610400821615612775576ff3392b0822b70005940c7a398e4b70f30260801c5b610800821615612795576fe7159475a2c29b7443b29c7fa6e889d90260801c5b6110008216156127b5576fd097f3bdfd2022b8845ad8f792aa58250260801c5b6120008216156127d5576fa9f746462d870fdf8a65dc1f90e061e50260801c5b6140008216156127f5576f70d869a156d2a1b890bb3df62baf32f70260801c5b618000821615612815576f31be135f97d08fd981231505542fcfa60260801c5b62010000821615612836576f09aa508b5b7a84e1c677de54f3e99bc90260801c5b62020000821615612856576e5d6af8dedb81196699c329225ee6040260801c5b62040000821615612875576d2216e584f5fa1ea926041bedfe980260801c5b62080000821615612892576b048a170391f7dc42444e8fa20260801c5b5f8460020b13156128d057807fffffffffffffffffffffffffffffffffffffffffffffffffffffffffffffffff816128cc576128cc614a5c565b0490505b6401000000008106156128e45760016128e6565b5f5b60ff16602082901c0192505050919050565b5f805f805f808a73ffffffffffffffffffffffffffffffffffffffff16632dda106b8a5f8b8b6040518563ffffffff1660e01b815260040161293d9493929190614e50565b5f60405180830381865afa158015612957573d5f803e3d5ffd5b505050506040513d5f823e601f3d9081017fffffffffffffffffffffffffffffffffffffffffffffffffffffffffffffffe016820160405261299c9190810190614e87565b9250925092505f8b73ffffffffffffffffffffffffffffffffffffffff16637594cdc36040518163ffffffff1660e01b8152600401602060405180830381865afa1580156129ec573d5f803e3d5ffd5b505050506040513d601f19601f82011682018060405250810190612a109190614d3d565b90505f8c73ffffffffffffffffffffffffffffffffffffffff16634d7b09006040518163ffffffff1660e01b8152600401602060405180830381865afa158015612a5c573d5f803e3d5ffd5b505050506040513d601f19601f82011682018060405250810190612a809190614d3d565b90508c73ffffffffffffffffffffffffffffffffffffffff166392b888ae6040518163ffffffff1660e01b8152600401602060405180830381865afa158015612acb573d5f803e3d5ffd5b505050506040513d601f19601f82011682018060405250810190612aef9190614d3d565b73ffffffffffffffffffffffffffffffffffffffff1663a7a5fd91848e8e8e8e5f808a8a6040518a63ffffffff1660e01b8152600401612b379998979695949392919061523b565b606060405180830381865afa158015612b52573d5f803e3d5ffd5b505050506040513d601f19601f82011682018060405250810190612b7691906151f5565b919f909e50909c509a5050505050505050505050565b5f62010000608083901c612591565b5f8373ffffffffffffffffffffffffffffffffffffffff166392b888ae6040518163ffffffff1660e01b8152600401602060405180830381865afa158015612be5573d5f803e3d5ffd5b505050506040513d601f19601f82011682018060405250810190612c099190614d3d565b6040517f63e17bb8000000000000000000000000000000000000000000000000000000008152600481018590526024810184905273ffffffffffffffffffffffffffffffffffffffff91909116906363e17bb890604401602060405180830381865afa158015612c7b573d5f803e3d5ffd5b505050506040513d601f19601f82011682018060405250810190612c9f9190614d58565b949350505050565b5f62010000609083901c612591565b5f612cc2848484612d11565b90505f8280612cd357612cd3614a5c565b84860911156113df577fffffffffffffffffffffffffffffffffffffffffffffffffffffffffffffffff8110612d07575f80fd5b6001019392505050565b5f80807fffffffffffffffffffffffffffffffffffffffffffffffffffffffffffffffff858709858702925082811083820303915050805f03612d64575f8411612d59575f80fd5b5082900490506113df565b808411612d6f575f80fd5b5f848688095f868103871696879004966002600389028118808a02820302808a02820302808a02820302808a02820302808a02820302808a02909103029181900381900460010186841190950394909402919094039290920491909117919091029150509392505050565b5f6fffffffffffffffffffffffffffffffff73ffffffffffffffffffffffffffffffffffffffff83161015612e4d57612e4683780100000000000000000000000000000000000000000000000060028573ffffffffffffffffffffffffffffffffffffffff160a612d11565b90506121cf565b612e4683700100000000000000000000000000000000612e8373ffffffffffffffffffffffffffffffffffffffff861680613715565b612d11565b5f6fffffffffffffffffffffffffffffffff73ffffffffffffffffffffffffffffffffffffffff83161015612ef457612e4683780100000000000000000000000000000000000000000000000060028573ffffffffffffffffffffffffffffffffffffffff160a612cb6565b612e4683700100000000000000000000000000000000612f2a73ffffffffffffffffffffffffffffffffffffffff861680613715565b612cb6565b5f6fffffffffffffffffffffffffffffffff73ffffffffffffffffffffffffffffffffffffffff83161015612f8157612e468360028473ffffffffffffffffffffffffffffffffffffffff160a6137b1565b612e4683612fa573ffffffffffffffffffffffffffffffffffffffff851680613715565b61385d565b5f6fffffffffffffffffffffffffffffffff73ffffffffffffffffffffffffffffffffffffffff83161015612ffc57612e468360028473ffffffffffffffffffffffffffffffffffffffff160a613901565b612e468361302073ffffffffffffffffffffffffffffffffffffffff851680613715565b613967565b5f805f8460010167ffffffffffffffff811115613044576130446146ff565b60405190808252806020026020018201604052801561306d578160200160208202803683370190505b5090505f8560010167ffffffffffffffff81111561308d5761308d6146ff565b6040519080825280602002602001820160405280156130b6578160200160208202803683370190505b5090505f5b8660010181146131a8578973ffffffffffffffffffffffffffffffffffffffff1663252c09d7898a8985028d0301816130f6576130f6614a5c565b066040518263ffffffff1660e01b815260040161311591815260200190565b608060405180830381865afa158015613130573d5f803e3d5ffd5b505050506040513d601f19601f8201168201806040525081019061315491906152c6565b8363ffffffff1693508260060b925090505083838151811061317857613178614a2f565b6020026020010185848151811061319157613191614a2f565b6020908102919091010191909152526001016130bb565b505f8667ffffffffffffffff8111156131c3576131c36146ff565b6040519080825280602002602001820160405280156131ec578160200160208202803683370190505b5090505f5b87811461329b5782816001018151811061320d5761320d614a2f565b602002602001015183828151811061322757613227614a2f565b60200260200101510384826001018151811061324557613245614a2f565b602002602001015185838151811061325f5761325f614a2f565b6020026020010151038161327557613275614a5c565b0582828151811061328857613288614a2f565b60209081029190910101526001016131f1565b505f815f815181106132af576132af614a2f565b602002602001015190506132c28261398c565b60028904815181106132d6576132d6614a2f565b60200260200101518195509550505050509550959350505050565b5f80806132fe8686612487565b90925090505f61330e87876136c0565b61332a906fffffffffffffffffffffffffffffffff8716614cdc565b9050613336878761399d565b5f03613351576133478383836139af565b93505050506113df565b613347838383613ad9565b5f806133688360e81c90565b60020b8460020b12156133855761337e83613b23565b91506133d4565b61338f8360d01c90565b60020b8460020b126133ab576133a483613bc5565b90506133d4565b6133bd6133b88486613c1a565b613b23565b91506133d16133cc8486613c68565b613bc5565b90505b9250929050565b5f60026048603084020184901c5b069392505050565b5f7f7fffffffffffffffffffffffffffffffffffffffffffffffffffffffffffffff82111561344c576040517fb668004500000000000000000000000000000000000000000000000000000000815260040160405180910390fd5b5090565b5f805f61345c8661244d565b90505f5b81811461349f575f806134758989858a613cb6565b90925090506134848683613d65565b95506134908582613d65565b94508260010192505050613460565b5050935093915050565b5f60026049603084020184901c6133e9565b5f6fffffffffffffffffffffffffffffffff871673ffffffff00000000000000000000000000000000608088901b1676ffffff000000000000000000000000000000000000000060a088901b167affffffff000000000000000000000000000000000000000000000060b888901b167f7fffffffff00000000000000000000000000000000000000000000000000000060d888901b1660ff8761355e575f613561565b60015b60ff16901b0101010101979650505050505050565b5f806c010000000000000000000000008373ffffffffffffffffffffffffffffffffffffffff16101561362f576135bf846fffffffffffffffffffffffffffffffff1684612dda565b6135db906fffffffffffffffffffffffffffffffff8716614d6f565b6136006135e88660801c90565b6fffffffffffffffffffffffffffffffff1685612e88565b61360a8760801c90565b6fffffffffffffffffffffffffffffffff166136269190614d6f565b915091506136b8565b836fffffffffffffffffffffffffffffffff1661365e866fffffffffffffffffffffffffffffffff1685612f2f565b6136689190614d6f565b6136728560801c90565b6fffffffffffffffffffffffffffffffff166136a96136918860801c90565b6fffffffffffffffffffffffffffffffff1686612faa565b6136b39190614d6f565b915091505b935093915050565b5f60806041603084020184901c6133e9565b5f6004604a603084020184901c6133e9565b5f6110006064603084020184901c6133e9565b5f805f806137058686613e25565b9088039897019695505050505050565b5f80807fffffffffffffffffffffffffffffffffffffffffffffffffffffffffffffffff848609848602925082811083820303915050805f0361375d575060401c90506121cf565b806801000000000000000011613771575f80fd5b5f6801000000000000000085870980840360401c931090910378010000000000000000000000000000000000000000000000000291909117949350505050565b5f80807fffffffffffffffffffffffffffffffffffffffffffffffffffffffffffffffff848609848602925082811083820303915050805f036137f9575060c01c90506121cf565b8078010000000000000000000000000000000000000000000000001161381d575f80fd5b5f780100000000000000000000000000000000000000000000000085870980840360c01c9310909103680100000000000000000291909117949350505050565b5f80807fffffffffffffffffffffffffffffffffffffffffffffffffffffffffffffffff848609848602925082811083820303915050805f036138a5575060801c90506121cf565b80700100000000000000000000000000000000116138c1575f80fd5b5f70010000000000000000000000000000000085870980840360801c93109091037001000000000000000000000000000000000291909117949350505050565b5f61390c83836137b1565b90505f78010000000000000000000000000000000000000000000000005b83850911156121cf577fffffffffffffffffffffffffffffffffffffffffffffffffffffffffffffffff811061395e575f80fd5b60010192915050565b5f613972838361385d565b90505f70010000000000000000000000000000000061392a565b606061344c825f6001855103613e67565b5f60026040603084020184901c6133e9565b5f806139ba85612598565b90505f6139c685612598565b90505f613a2185613a038473ffffffffffffffffffffffffffffffffffffffff168673ffffffffffffffffffffffffffffffffffffffff16613ff0565b85850373ffffffffffffffffffffffffffffffffffffffff16612d11565b90506fffffffffffffffffffffffffffffffff811115613a6d576040517fa500e7ea00000000000000000000000000000000000000000000000000000000815260040160405180910390fd5b6fffffffffffffffffffffffffffffffff811660d087901b7cffffff00000000000000000000000000000000000000000000000000001660e889901b7fffffff00000000000000000000000000000000000000000000000000000000001601015b979650505050505050565b5f80613ae485612598565b90505f613af085612598565b90505f613a21856c0100000000000000000000000085850373ffffffffffffffffffffffffffffffffffffffff16612d11565b5f80613b37613b328460e81c90565b612598565b90505f613b47613b328560d01c90565b905073ffffffffffffffffffffffffffffffffffffffff8216613baf6060866fffffffffffffffffffffffffffffffff16901b84840373ffffffffffffffffffffffffffffffffffffffff168473ffffffffffffffffffffffffffffffffffffffff16612d11565b81613bbc57613bbc614a5c565b04949350505050565b5f80613bd4613b328460e81c90565b90505f613be4613b328560d01c90565b9050612c9f846fffffffffffffffffffffffffffffffff1683830373ffffffffffffffffffffffffffffffffffffffff16613ff0565b5f6121cc7cffffffffffffffffffffffffffffffffffffffffffffffffffffffffff84168360e81b7fffffff0000000000000000000000000000000000000000000000000000000000160190565b5f6121cc7fffffff000000ffffffffffffffffffffffffffffffffffffffffffffffffffff84168360d01b7cffffff0000000000000000000000000000000000000000000000000000160190565b5f805f613cc587878787614090565b90505f613cd288876133db565b159050613cdf88876134a9565b5f03613d2b578015613d1857613d11613cfc83614184565b614184565b6fffffffffffffffffffffffffffffffff1690565b9250613d5a565b613d24613cfc83614184565b9350613d5a565b8015613d4757613d11613d41613cf78460801c90565b60801b90565b613d57613d41613cf78460801c90565b93505b505094509492505050565b5f80613d718360801d90565b600f0b613d7e8560801d90565b600f0b019050805f84600f0b86600f0b0190505f8190508383600f0b141580613daa57508181600f0b14155b15613de1576040517fd219017400000000000000000000000000000000000000000000000000000000815260040160405180910390fd5b608083901b6fffffffffffffffffffffffffffffffff828701167fffffffffffffffffffffffffffffffff0000000000000000000000000000000087160101613ace565b5f806002613e338486614b29565b613e3d9190614ab6565b613e5c613e4a8587615328565b62ffffff166002808204910615150190565b915091509250929050565b8181808203613e77575050505050565b5f85600286860305860181518110613e9157613e91614a2f565b602002602001015190505b81831215613fc2575b80868481518110613eb857613eb8614a2f565b60200260200101511215613ed157600190920191613ea5565b858281518110613ee357613ee3614a2f565b6020026020010151811215613f1c577fffffffffffffffffffffffffffffffffffffffffffffffffffffffffffffffff90910190613ed1565b818313613fbd57858281518110613f3557613f35614a2f565b6020026020010151868481518110613f4f57613f4f614a2f565b6020026020010151878581518110613f6957613f69614a2f565b60200260200101888581518110613f8257613f82614a2f565b6020908102919091010191909152526001909201917fffffffffffffffffffffffffffffffffffffffffffffffffffffffffffffffff909101905b613e9c565b81851215613fd557613fd5868684613e67565b83831215613fe857613fe8868486613e67565b505050505050565b5f80807fffffffffffffffffffffffffffffffffffffffffffffffffffffffffffffffff848609848602925082811083820303915050805f03614038575060601c90506121cf565b806c0100000000000000000000000011614050575f80fd5b5f6c0100000000000000000000000085870980840360601c9310909103740100000000000000000000000000000000000000000291909117949350505050565b5f80808061409e88876136e4565b60020b15159050806140b9576002606460308802011b880197505b5f6140c589888a6132f1565b90506140d189886133db565b1580156140db5750855b806140f757506140eb89886133db565b158015906140f7575085155b80614100575081155b156141205761410e816141c8565b935061411981614259565b9250614137565b61412981613b23565b935061413481613bc5565b92505b6141776fffffffffffffffffffffffffffffffff85168460801b7fffffffffffffffffffffffffffffffff00000000000000000000000000000000160190565b9998505050505050505050565b805f600f82900b12156141c3576040517fb668004500000000000000000000000000000000000000000000000000000000815260040160405180910390fd5b919050565b5f806141d7613b328460e81c90565b90505f6141e7613b328560d01c90565b9050612c9f61423b6060866fffffffffffffffffffffffffffffffff16901b84840373ffffffffffffffffffffffffffffffffffffffff168473ffffffffffffffffffffffffffffffffffffffff16612cb6565b60018473ffffffffffffffffffffffffffffffffffffffff16612cb6565b5f80614268613b328460e81c90565b90505f614278613b328560d01c90565b9050612c9f846fffffffffffffffffffffffffffffffff1683830373ffffffffffffffffffffffffffffffffffffffff165f6142b48383613ff0565b90505f6c0100000000000000000000000061392a565b60405180608001604052806004906020820280368337509192915050565b60405180604001604052806002906020820280368337509192915050565b60405180608001604052806004905b61431d6142e8565b8152602001906001900390816143155790505090565b5f60208284031215614343575f80fd5b5035919050565b73ffffffffffffffffffffffffffffffffffffffff8116811461436b575f80fd5b50565b5f8083601f84011261437e575f80fd5b50813567ffffffffffffffff811115614395575f80fd5b6020830191508360208260051b85010111156133d4575f80fd5b5f805f80606085870312156143c2575f80fd5b84356143cd8161434a565b935060208501356143dd8161434a565b9250604085013567ffffffffffffffff8111156143f8575f80fd5b6144048782880161436e565b95989497509550505050565b805f5b6004811015612447578151845260209384019390910190600101614413565b61020081016144418287614410565b61444e6080830186614410565b61445c610100830185614410565b611708610180830184614410565b5f8282825b600281101561448e57815183526020928301929091019060010161446f565b50505060408301905092915050565b5f8151808452602084019350602083015f5b828110156144d057815160020b8652602095860195909101906001016144af565b5093949350505050565b606080825284519082018190525f9060208601906080840190835b818110156145195761450883855161446a565b6020949094019392506001016144f5565b5050838103602080860191909152865180835291810192508601905f5b81811015614554578251845260209384019390920191600101614536565b5050508281036040840152614569818561449d565b9695505050505050565b8060020b811461436b575f80fd5b5f805f805f60808688031215614595575f80fd5b85356145a08161434a565b945060208601356145b08161434a565b9350604086013567ffffffffffffffff8111156145cb575f80fd5b6145d78882890161436e565b90945092505060608601356145eb81614573565b809150509295509295909350565b5f805f6060848603121561460b575f80fd5b83356146168161434a565b9250602084013561462681614573565b929592945050506040919091013590565b5f805f60608486031215614649575f80fd5b83356146548161434a565b95602085013595506040909401359392505050565b801515811461436b575f80fd5b5f805f805f8060a0878903121561468b575f80fd5b86356146968161434a565b955060208701356146a68161434a565b945060408701356146b681614669565b9350606087013567ffffffffffffffff8111156146d1575f80fd5b6146dd89828a0161436e565b90945092505060808701356146f181614573565b809150509295509295509295565b7f4e487b71000000000000000000000000000000000000000000000000000000005f52604160045260245ffd5b604051601f82017fffffffffffffffffffffffffffffffffffffffffffffffffffffffffffffffe016810167ffffffffffffffff81118282101715614773576147736146ff565b604052919050565b5f67ffffffffffffffff821115614794576147946146ff565b5060051b60200190565b5f805f606084860312156147b0575f80fd5b83356147bb8161434a565b925060208401356147cb8161434a565b9150604084013567ffffffffffffffff8111156147e6575f80fd5b8401601f810186136147f6575f80fd5b80356148096148048261477b565b61472c565b8082825260208201915060208360051b85010192508883111561482a575f80fd5b6020840193505b8284101561484c578335825260209384019390910190614831565b809450505050509250925092565b602080825282518282018190525f918401906040840190835b818110156148bf578351835f5b60048110156148a55761489482845161446a565b602093909301929150600101614880565b505050602093909301926101009290920191600101614873565b509095945050505050565b5f805f606084860312156148dc575f80fd5b83356148e78161434a565b92506020840135915060408401356148fe81614573565b809150509250925092565b5f805f805f6080868803121561491d575f80fd5b85356149288161434a565b945060208601356149388161434a565b9350604086013561494881614573565b9250606086013567ffffffffffffffff811115614963575f80fd5b61496f8882890161436e565b969995985093965092949392505050565b63ffffffff8116811461436b575f80fd5b5f80604083850312156149a2575f80fd5b82356149ad8161434a565b915060208301356149bd81614980565b809150509250929050565b5f805f805f60a086880312156149dc575f80fd5b85516149e781614573565b60208701519095506149f881614573565b6040870151909450614a0981614573565b6060870151909350614a1a81614573565b60809690960151949793965091949392915050565b7f4e487b71000000000000000000000000000000000000000000000000000000005f52603260045260245ffd5b7f4e487b71000000000000000000000000000000000000000000000000000000005f52601260045260245ffd5b7f4e487b71000000000000000000000000000000000000000000000000000000005f52601160045260245ffd5b5f8160020b8360020b80614acc57614acc614a5c565b7fffffffffffffffffffffffffffffffffffffffffffffffffffffffffffffffff81147fffffffffffffffffffffffffffffffffffffffffffffffffffffffffff80000083141615614b2057614b20614a89565b90059392505050565b5f8260020b8260020b028060020b9150808214614b4857614b48614a89565b5092915050565b600282810b9082900b037fffffffffffffffffffffffffffffffffffffffffffffffffffffffffff8000008112627fffff821317156121cf576121cf614a89565b600281810b9083900b01627fffff81137fffffffffffffffffffffffffffffffffffffffffffffffffffffffffff800000821217156121cf576121cf614a89565b8181035f831280158383131683831282161715614b4857614b48614a89565b5f82614bfe57614bfe614a5c565b7fffffffffffffffffffffffffffffffffffffffffffffffffffffffffffffffff83147f800000000000000000000000000000000000000000000000000000000000000083141615614c5257614c52614a89565b500590565b818103818111156121cf576121cf614a89565b8082025f82127f800000000000000000000000000000000000000000000000000000000000000084141615614ca157614ca1614a89565b81810583148215176121cf576121cf614a89565b8082018281125f831280158216821582161715614cd457614cd4614a89565b505092915050565b80820281158282048414176121cf576121cf614a89565b5f82614d0157614d01614a5c565b500490565b5f7fffffffffffffffffffffffffffffffffffffffffffffffffffffffffffffffff8203614d3657614d36614a89565b5060010190565b5f60208284031215614d4d575f80fd5b81516113df8161434a565b5f60208284031215614d68575f80fd5b5051919050565b808201808211156121cf576121cf614a89565b805161ffff811681146141c3575f80fd5b5f805f805f805f60e0888a031215614da9575f80fd5b8751614db48161434a565b6020890151909750614dc581614573565b9550614dd360408901614d82565b9450614de160608901614d82565b9350614def60808901614d82565b925060a088015160ff81168114614e04575f80fd5b60c0890151909250614e1581614669565b8091505092959891949750929550565b8183526020830192505f815f5b848110156144d0578135865260209586019590910190600101614e32565b73ffffffffffffffffffffffffffffffffffffffff851681528315156020820152606060408201525f614569606083018486614e25565b5f805f60608486031215614e99575f80fd5b835160208501516040860151919450925067ffffffffffffffff811115614ebe575f80fd5b8401601f81018613614ece575f80fd5b8051614edc6148048261477b565b8082825260208201915060208360051b850101925088831115614efd575f80fd5b6020840193505b8284101561484c578351825260209384019390910190614f04565b5f8151808452602084019350602083015f5b828110156144d0578151865260209586019590910190600101614f31565b61012081525f614f6361012083018d614f1f565b8281036020840152614f76818c8e614e25565b60029a909a0b6040840152505073ffffffffffffffffffffffffffffffffffffffff9687166060820152608081019590955260a085019390935290841660c084015290921660e082015261010001529392505050565b5f60208284031215614fdc575f80fd5b81516113df81614669565b5f60208284031215614ff7575f80fd5b815167ffffffffffffffff81111561500d575f80fd5b8201601f8101841361501d575f80fd5b805167ffffffffffffffff811115615037576150376146ff565b61506860207fffffffffffffffffffffffffffffffffffffffffffffffffffffffffffffffe0601f8401160161472c565b81815285602083850101111561507c575f80fd5b8160208401602083015e5f91810160200191909152949350505050565b60a081525f86518060a0840152806020890160c085015e5f60c0828501015260c07fffffffffffffffffffffffffffffffffffffffffffffffffffffffffffffffe0601f83011684010191505073ffffffffffffffffffffffffffffffffffffffff861660208301528460408301528360020b60608301528260020b60808301529695505050505050565b61010081525f61513861010083018b614f1f565b8960020b602084015273ffffffffffffffffffffffffffffffffffffffff89166040840152828103606084015280885180835260208301915060208a0192505f5b81811015615197578351835260209384019390920191600101615179565b505080925050508560808301528460a08301526151cc60c083018573ffffffffffffffffffffffffffffffffffffffff169052565b73ffffffffffffffffffffffffffffffffffffffff831660e08301529998505050505050505050565b5f805f60608486031215615207575f80fd5b5050815160208301516040909301519094929350919050565b5f60208284031215615230575f80fd5b81516113df81614573565b61010081525f61524f61010083018c614f1f565b8a60020b602084015273ffffffffffffffffffffffffffffffffffffffff8a166040840152828103606084015261528781898b614e25565b6080840197909752505060a081019390935273ffffffffffffffffffffffffffffffffffffffff91821660c08401521660e09091015295945050505050565b5f805f80608085870312156152d9575f80fd5b84516152e481614980565b8094505060208501518060060b81146152fb575f80fd5b604086015190935061530c8161434a565b606086015190925061531d81614669565b939692955090935050565b62ffffff8181168382160290811690818114614b4857614b48614a8956fea2646970667358221220c203257fad701822652fda3bc2c26c99fa43a6b5d4de580c304dcf36d6ddaee764736f6c634300081a0033","linkReferences":{"lib/panoptic-v2-core/contracts/libraries/PanopticMath.sol":{"PanopticMath":[{"start":8681,"length":20}]}}},"methodIdentifiers":{"checkCollateral(address,address,uint256[])":"7d908a1b","checkCollateral(address,address,uint256[],int24)":"998d3525","checkCollateralListOutput(address,address,uint256[])":"8fec6d57","computeMedianObservedPrice(address,uint256,uint256)":"a2ae7fdc","getChunkData(address,address,uint256[])":"b8b551d6","getLiquidationPrices(address,address,uint256[])":"7fe2f965","getNetLiquidationValue(address,address,bool,uint256[],int24)":"b7e5673c","getPortfolioValue(address,address,int24,uint256[])":"df55c472","getRequiredBase(address,uint256,int24)":"d27e5fa7","isAccountSolvent(address,address,uint256[],int24)":"b78ba442","optimizeRiskPartners(address,int24,uint256)":"9bd25cad","twapFilter(address,uint32)":"e830adb9","validateTokenId(uint256)":"34600901"},"id":137}